:020000040800F2
:10000000B8040020D1000008610300080D030008B7
:1000100000000000000000000000000000000000E0
:10002000000000000000000000000000890400083B
:1000300000000000000000005701000865050008EE
:100040000101000800000000010100080101000892
:100050000101000801010008010100080101000878
:100060000000000001010008010100080101000872
:100070000101000801010008010100080000000062
:10008000010100080000000000000000010100085C
:100090000101000801010008010100080101000838
:1000A000010100080101000801010008F90500082C
:1000B000010100080348854600F09AF8004800470F
:1000C0002D070008B804002080F30888704700005E
:1000D0000C4880F308880C480168090E0B4A9142CD
:1000E00005D10B480B4901600B480C4901600C48D5
:1000F00080470C480047FEE7FEE7FEE7FEE7FEE725
:10010000FEE70000B8040020040000001F0000000B
:100110001810024001000000000001400000000033
:100120007D050008B50000081C481D49016000203D
:1001300080F309881B48016881F308881A481B4925
:10014000016062B6FEE7184818490160704716481A
:1001500016490160704772B6EFF30980002805D098
:100160001038F0C0103812490968086000B511480D
:10017000804701BC8646104810490A7802700C4836
:100180000F490A6802601068F0C880F30988704659
:1001900004210843864662B67047000020ED00E067
:1001A0000000FF00B000002004ED00E0000000109F
:1001B000A8000020DD0300084E0000204F000020B2
:1001C000AC00002030B50B4601460020202201245F
:1001D00009E00D46D5409D4205D31D469540491B7B
:1001E0002546954040191546521E002DF1DC30BDC4
:1001F000064C0125064E05E0E36807CC2B430C3C7A
:1002000098471034B442F7D3FFF758FF8807000827
:10021000A80700080020704770B505461148058002
:100220007D21C90010480068FFF7CCFF0446601E1E
:100230000E49884200D90CE0601E0D494861032137
:10024000081F00F08FF80020094988610720086125
:1002500000BF00BF034800880028FBD104490861A3
:10026000886170BD1400002000000020FFFFFF0027
:1002700000E000E0F0B50A4600210023002400BFA2
:100280003DE001258D402B4615681D402C469C42C3
:1002900034D11579012D02D01579022D16D185683A
:1002A0004F000326BE40B543856055794E00B540EA
:1002B000866835438560858801268E40B5438580F4
:1002C000858896798E40B6B23543858005684F00A3
:1002D0000326BE40B543056015794E00B54006685B
:1002E00035430560C5684F000326BE40B543C56071
:1002F000D5794E00B540C6683543C560491C102904
:10030000BFD3F0BD018570478161704700BFFEE734
:1003100010B504460E49206808400121490788426B
:1003200015D10C49606808602068FFF7CDFE0020F9
:1003300008E00022D24308498300CA5007498300DD
:10034000CA50401C0828F4DB02480068804710BDF2
:100350000000FE2F1800002080E100E080E200E0B5
:100360007047000010B5002819DA1A4A03071B0F5E
:10037000083B9B089B00D2588307DC0EFF23A34059
:100380009A438B071B0E8407E40EA3401A43114BBC
:100390000407240F083CA408A4001A5118E00E4AD0
:1003A00003231B02D21883089B00D2588307DC0E5C
:1003B000FF23A3409A438B071B0E8407E40EA34040
:1003C0001A43054B032424021B198408A4001A5164
:1003D00010BD00001CED00E000E100E010B51E487B
:1003E0000068002802D01C4800688047FFF712FF11
:1003F00004461A4800681A490968884215D0174807
:10040000006880308069211A14480068803041619A
:10041000124800688030C169104800688030406927
:1004200009180E4800688030C1610D4800688030AE
:1004300084610A4800688030406B0A490968884234
:1004400005D20848016805480068803041630020F3
:100450000449086010BD000030000020A800002002
:10046000AC00002064000020002905D0054A526934
:100470000243044B5A6104E0024A52698243014B31
:100480005A61704700100240704700000CB5002010
:1004900001900090314800680121090408432F4968
:1004A000086000BF2D480068012149040840009001
:1004B0000198401C01900098002804D105210903EF
:1004C00001988842EED1254800680121490408407E
:1004D000002802D00120009001E000200090009848
:1004E000012839D111201E4908601C4840681B4969
:1004F0004860084640684860084640687F21C90354
:1005000088431649486008464068092109040843A1
:1005100012494860084600680121090608430F494E
:10052000086000BF0D480068012149060840002806
:10053000F8D00A48406880088000084948600846AA
:100540004068022108430549486000BF03484068ED
:100550000C2108400828F9D10CBD00000010024011
:100560000020024004480088002804D00248008887
:10057000401E0149088070471400002010B51B4838
:100580000068012108431949086008464068184975
:100590000840164948600846006816490840134953
:1005A0000860084600680121890488430F490860F3
:1005B000084640683F21090488430C4948600846C2
:1005C000C06A00090001C8620846006BFF2154316F
:1005D0008843064908630846406B4008400048636A
:1005E00000208860FFF752FF10BD0000001002409D
:1005F0000CB8FF08FFFFF6FE10B50949094800F0E6
:100600001CF800280BD00649064800F00DF80548F4
:1006100000F03AF804462146024800F03AF810BDCE
:10062000050105000038014010B5002300220B0C25
:1006300001249C402246026210BD70B502460B4662
:1006400000240021002500201E04350ED9B2012609
:100650008E403146012D02D11668314006E0022D50
:1006600002D15668314001E0966831401C0C0126E9
:10067000A6403446D6693440002903D0002C01D06E
:10068000012000E0002070BD0146888CC005C00D2F
:100690007047CA05D20D0285704702E008C8121FD4
:1006A00008C1002AFAD170477047002001E001C15B
:1006B000121F002AFBD170471CB5012107204004FE
:1006C000FFF7D2FE0320009001216846017103214B
:1006D000417169461448FFF7CDFD80200090032149
:1006E000684641710121017169460920C006FFF782
:1006F000C1FD0320400300900321684641710121A0
:10070000017169460848FFF7B5FD0120C00300905C
:100710000321684641710121017169460920C00623
:10072000FFF7A8FD1CBD000000040048FFF7C4FF50
:1007300023E080210920C006FFF7E6FD01210F48D4
:10074000FFF7E0FD02210D48FFF7DCFD7D20C00032
:10075000FFF762FD80210920C006FFF7D3FD0121CC
:100760000648FFF7D1FD02210448FFF7CBFD0448FE
:10077000FFF752FD0348FFF7CBFDDAE7000400481E
:10078000B80B000000300008A80700080000002097
:10079000B40000009A0600085C080008B4000020BD
:1007A00004040000AA060008006CDC02000000003F
:1007B0000000000001020304060708090000000011
:1007C0000000000000000000000000000000000029
:1007D0000000000000000000000000000000000019
:1007E0000000000000000000000000000000000009
:1007F00000000000000000000000000000000000F9
:1008000000000000000000000000000000000000E8
:1008100000000000000000000000000000000000D8
:1008200000000000000000000000000000000000C8
:1008300000000000000000000000000000000000B8
:1008400000000000000000000000000000000000A8
:0C0850000000000000000000000000009C
:04000005080000B53A
:00000001FF
