:020000040800F2
:1000000020040020D1000008C10200086D02000891
:1000100000000000000000000000000000000000E0
:100020000000000000000000000000005D03000868
:100030000000000000000000FD0000083904000876
:100040000101000800000000010100080101000892
:100050000101000801010008010100080101000878
:100060000000000001010008010100080101000872
:100070000101000801010008010100080000000062
:10008000010100080000000000000000010100085C
:100090000101000801010008010100080101000838
:1000A000010100080101000801010008CD04000859
:1000B000010100080348854600F04CF8004800475D
:1000C000010600082004002080F308887047000023
:1000D0000C4880F308880C480168090E0B4A9142CD
:1000E00005D10B480B4901600B480C4901600C48D5
:1000F00080470C480047FEE7FEE7FEE7FEE7FEE725
:10010000FEE7000020040020040000001F000000A3
:100110001810024001000000000001400000000033
:1001200051040008B500000830B50B460146002018
:100130002022012409E00D46D5409D4205D31D46ED
:100140009540491B2546954040191546521E002DE5
:10015000F1DC30BD064C0125064E05E0E36807CC16
:100160002B430C3C98471034B442F7D3FFF7A6FF5B
:100170005C0600087C06000870B50546114805803D
:100180007D21C90010480068FFF7CEFF0446601EBD
:100190000E49884200D90CE0601E0D4948610321D8
:1001A000081F00F08FF800200949886107200861C6
:1001B00000BF00BF034800880028FBD10449086144
:1001C000886170BD1400002000000020FFFFFF00C8
:1001D00000E000E0F0B50A4600210023002400BF43
:1001E0003DE001258D402B4615681D402C469C4264
:1001F00034D11579012D02D01579022D16D18568DB
:100200004F000326BE40B543856055794E00B5408A
:10021000866835438560858801268E40B543858094
:10022000858896798E40B6B23543858005684F0043
:100230000326BE40B543056015794E00B5400668FB
:1002400035430560C5684F000326BE40B543C56011
:10025000D5794E00B540C6683543C560491C1029A4
:10026000BFD3F0BD018570478161704700BFFEE7D5
:1002700010B504460E49206808400121490788420C
:1002800015D10C49606808602068FFF71DFF002049
:1002900008E00022D24308498300CA50074983007E
:1002A000CA50401C0828F4DB02480068804710BD93
:1002B0000000FE2F1800002080E100E080E200E056
:1002C0007047000010B5002819DA1A4A03071B0FFF
:1002D000083B9B089B00D2588307DC0EFF23A340FA
:1002E0009A438B071B0E8407E40EA3401A43114B5D
:1002F0000407240F083CA408A4001A5118E00E4A71
:1003000003231B02D21883089B00D2588307DC0EFC
:10031000FF23A3409A438B071B0E8407E40EA340E0
:100320001A43054B032424021B198408A4001A5104
:1003300010BD00001CED00E000E100E0002905D048
:10034000054A52690243044B5A6104E0024A526969
:100350008243014B5A617047001002407047000011
:100360000CB500200190009031480068012109047B
:1003700008432F49086000BF2D4800680121490447
:10038000084000900198401C01900098002804D17A
:100390000521090301988842EED125480068012112
:1003A00049040840002802D00120009001E000200C
:1003B00000900098012839D111201E4908601C487E
:1003C00040681B49486008464068486008464068E5
:1003D0007F21C903884316494860084640680921BF
:1003E00009040843124948600846006801210906CB
:1003F00008430F49086000BF0D4800680121490605
:1004000008400028F8D00A48406880088000084961
:10041000486008464068022108430549486000BF1B
:10042000034840680C2108400828F9D10CBD0000A1
:10043000001002400020024004480088002804D038
:1004400002480088401E01490880704714000020BF
:1004500010B51B4800680121084319490860084687
:10046000406818490840164948600846006816491F
:100470000840134908600846006801218904884340
:100480000F490860084640683F21090488430C4929
:1004900048600846C06A00090001C8620846006B4F
:1004A000FF2154318843064908630846406B4008E1
:1004B0004000486300208860FFF752FF10BD000035
:1004C000001002400CB8FF08FFFFF6FE10B5094906
:1004D000094800F01CF800280BD00649064800F037
:1004E0000DF8054800F03AF804462146024800F0AD
:1004F0003AF810BD050105000038014010B5002391
:1005000000220B0C01249C402246026210BD70B5F3
:1005100002460B4600240021002500201E04350E53
:10052000D9B201268E403146012D02D116683140E4
:1005300006E0022D02D15668314001E09668314054
:100540001C0C0126A6403446D6693440002903D04D
:10055000002C01D0012000E0002070BD0146888CF5
:10056000C005C00D7047CA05D20D0285704702E074
:1005700008C8121F08C1002AFAD17047704700202E
:1005800001E001C1121F002AFBD170471CB50121F7
:1005900007204004FFF7D2FE0320009001216846A7
:1005A00001710321417169461448FFF713FE802051
:1005B00000900321684641710121017169460920BB
:1005C000C006FFF707FE03204003009003216846A2
:1005D00041710121017169460848FFF7FBFD0120C7
:1005E000C0030090032168464171012101716946F1
:1005F0000920C006FFF7EEFD1CBD00000004004806
:10060000FFF7C4FF23E080210920C006FFF72CFE7E
:1006100001210F48FFF726FE02210D48FFF722FEB9
:100620007D20C000FFF7A8FD80210920C006FFF74C
:1006300019FE01210648FFF717FE02210448FFF7C3
:1006400011FE0448FFF798FD0348FFF711FEDAE7B3
:1006500000040048B80B0000003000087C060008C9
:10066000000000201C0000006E050008980600082D
:100670001C000020040400007E050008006CDC0261
:100680000000000000000000010203040607080942
:08069000000000000000000062
:04000005080000B53A
:00000001FF
